:100000000C9438000C944A000C944A000C944A005A
:100010000C944A000C944A000C944A000C949D00E5
:100020000C944A000C944A000C944A000C944A0028
:100030000C944A000C944A000C944A000C944A0018
:100040000C9465000C944A000C944A000C944A00ED
:100050000C944A000C944A000C944A000C944A00F8
:100060000C944A000C944A000C944A000C944A00E8
:1000700011241FBECFEFD4E0DEBFCDBF21E0A0E052
:10008000B1E001C01D92A035B207E1F70E94F50072
:100090000C948C020C94000010BA1CB8639A609AFD
:1000A00018B8409A6B9A089512BC83E381BD80E230
:1000B00086BD88E985BD86E084BD1092040108955F
:1000C00006B405FEFDCF80BD08951F920F920FB6B6
:1000D0000F9211248F939F9380B5909103019111FA
:1000E00009C0823091F46B9880933C0181E0809349
:1000F00003010BC0913049F4833029F46B9A90933B
:1001000007011092030180933C019F918F910F9002
:100110000FBE0F901F90189580E484B986E883B9CC
:1001200008958CE0809371008EE190E090936D00D3
:1001300080936C0080E48ABF08951F920F920FB6DF
:100140000F9211242F938F939F938091010190918F
:100150000201843F21E09207A8F0809107018111FC
:100160000CC080910001811105C06B9881E08093E3
:10017000000103C06B9A10920001109202011092CC
:10018000010105C0019690930201809301019F91A6
:100190008F912F910F900FBE0F901F90189581E0B7
:1001A00084B91E9A1E99FECF8DE08A95F1F7000062
:1001B00083E799E00197F1F700C0000060B171B1E9
:1001C00080E090E00E947D0120E030E040EA5BE3C7
:1001D0000E940B0220E030E040EC50E40E940B0251
:1001E0000E944E016093060108950E944C000E94F7
:1001F00054000E9491000E948C00409810920701C8
:10020000789402E081E4F82E10E39AE0E92E23E0EE
:10021000D22E0E94CF0080910501882319F08130F1
:1002200041F0F7CF80910401813099F78093050167
:10023000F0CF80913D018037D9F490913E01923505
:10024000B9F400930A0180930B01F0920C01109312
:100250000D0110930E01809108016E2D0E94800205
:10026000805D80930F01905D90931001D0921101F9
:10027000409A89EF90E00197F1F700C00000CAE0D2
:10028000D1E089910E94600091E0C231D907C9F79D
:1002900040981092040110920501BBCF0E94EA0120
:1002A00088F09F5798F0B92F9927B751B0F0E1F037
:1002B000660F771F881F991F1AF0BA95C9F714C0E7
:1002C000B13091F00E940402B1E008950C94040250
:1002D000672F782F8827B85F39F0B93FCCF3869520
:1002E00077956795B395D9F73EF49095809570957D
:1002F00061957F4F8F4F9F4F0895E89409C097FBFA
:100300003EF490958095709561957F4F8F4F9F4FEC
:100310009923A9F0F92F96E9BB279395F695879530
:1003200077956795B795F111F8CFFAF4BB0F11F4F3
:1003300060FF1BC06F5F7F4F8F4F9F4F16C088239A
:1003400011F096E911C0772321F09EE8872F762FD0
:1003500005C0662371F096E8862F70E060E02AF011
:100360009A95660F771F881FDAF7880F96958795FD
:1003700097F9089597F99F6780E870E060E0089525
:100380009FEF80EC089500240A94161617061806AD
:100390000906089500240A94121613061406050689
:1003A0000895092E0394000C11F4882352F0BB0F1A
:1003B00040F4BF2B11F460FF04C06F5F7F4F8F4F7D
:1003C0009F4F089557FD9058440F551F59F05F3FB8
:1003D00071F04795880F97FB991F61F09F3F79F067
:1003E00087950895121613061406551FF2CF4695E9
:1003F000F1DF08C0161617061806991FF1CF86956B
:100400007105610508940895E894BB27662777274E
:10041000CB0197F908950E941D020C94D1010E940E
:10042000C30138F00E94CA0120F0952311F00C940A
:10043000BA010C94C0010C9405020E94E20178F309
:100440009923C9F35523B9F3950F50E0551FAA27F7
:10045000EE27FF27BB2700240894679520F4E20FBE
:10046000F31FB41F0A1E220F331F441FAA1F6695D5
:10047000A9F7779530F4F30FB41F0A1E121E08F483
:100480006395330F441FAA1F221F769599F787950E
:1004900020F4B40F0A1E121E631F440FAA1F221F4E
:1004A000331F8695A9F7862F712D602D11249F5734
:1004B00050409AF0F1F088234AF0EE0FFF1FBB1F67
:1004C000661F771F881F91505040A9F79E3F510526
:1004D00080F00C94BA010C9405025F3FE4F3983E5F
:1004E000D4F3869577956795B795F795E7959F5FD0
:1004F000C1F7FE2B880F911D9695879597F9089562
:10050000991B79E004C0991F961708F0961B881F65
:0C0510007A95C9F780950895F894FFCF04
:00000001FF
