S01700004763634170706C69636174696F6E312E737265635B
S11300000C9438000C944A000C944A000C944A0056
S11300100C944A000C944A000C944A000C9423015A
S11300200C944A000C944A000C944A000C944A0024
S11300300C944A000C944A000C94A0000C944A00BE
S11300400C94B5000C944A000C944A000C944A0099
S11300500C944A000C944A000C944A000C944A00F4
S11300600C944A000C944A000C944A000C944A00E4
S113007011241FBECFEFD4E0DEBFCDBF21E0A0E04E
S1130080B1E001C01D92A534B207E1F70E94C2019C
S11300900C94A5030C94000010BA1CB8639A609ADF
S11300A080E48AB918B8409A6B9A089512BC83E325
S11300B081BD80E286BD88E985BD86E084BD10925D
S11300C03101089506B405FEFDCF80BD089581EA8F
S11300D090EAA0EABCE38093410190934201A0938B
S11300E04301B093440110923B0110923C011092E1
S11300F03D0110923E010895BC0180E090E00E9411
S1130100800220914101309142014091430150917C
S113011044010E940E0320913B0130913C01409127
S11301203D0150913E010E94E50108958EEE83B990
S113013088E082B988E38093600081E084B90895FF
S11301401F920F920FB60F9211248F939F9381B138
S113015090E090933801809337011E9A9F918F917C
S11301600F900FBE0F901F9018951F920F920FB60D
S11301700F9211242F933F938F939F93AF93BF9329
S1130180EF93FF9390B58091080181110BC09230D9
S113019009F040C081E08093070190931D01809392
S11301A0080138C08130B1F5E09107018E0F8093CA
S11301B00701F0E0E35EFE4F9083933059F58091A0
S11301C005019091060121E030E0009711F020E054
S11301D030E03093060120930501892B11F46B98CC
S11301E001C06B9A81E080933A0110920801EDE11D
S11301F0F1E0A9E0B1E023E231E081918D93E217CF
S1130200F307D9F786E090E090930401809303010B
S113021010920701FF91EF91BF91AF919F918F9140
S11302203F912F910F900FBE0F901F9018958CE067
S1130230809371008EE190E090936D0080936C0048
S113024080E48ABF08951F920F920FB60F92112473
S11302502F938F939F938091010190910201843F8A
S113026021E0920798F080913A0181110AC08091AF
S11302700001811104C081E08093000102C010924A
S11302800001109202011092010105C001969093A1
S11302900201809301019F918F912F910F900FBEC6
S11302A00F901F9018958F929F92AF92BF92CF920A
S11302B0DF92EF92FF920F931F93CF93DF934098B7
S11302C080913701909138010E947C0020E030E059
S11302D040E251E40E940E030E9451024B015C0172
S11302E0C9E0D1E082E0888381E6898381E48A835E
S11302F0C501B40128EE33E040E050E00E948303DE
S1130300205D2B830F2EF4E6CF2ED12CE12CF12C83
S1130310F02DA70196010E948303205D2C83C50163
S1130320B401A70196010E9483032AE030E040E073
S113033050E00E948303205D2D83605D6E8383E023
S11303408F838FEA96E30197F1F700C0000001E183
S113035011E089910E946200C017D107D1F78FE1A3
S11303609EE40197F1F700C00000DF91CF911F9147
S11303700F91FF90EF90DF90CF90BF90AF909F9040
S11303808F9008950E944C000E9456000E9417010D
S11303900E9496000E946700409810923A01789457
S11303A0409AC9E0D1E080913A01882359F0109233
S11303B03A018A818534B9F789818136A1F70E948F
S11303C05301F1CF409AEFCF5058BB27AA270E9480
S11303D0FC010C94D4020E94C60238F00E94CD02A3
S11303E020F039F49F3F19F426F40C94C3020EF460
S11303F0E095E7FB0C94BD02E92F0E94E50258F357
S1130400BA17620773078407950720F079F4A6F5F5
S11304100C9407030EF4E0950B2EBA2FA02D0B01BC
S1130420B90190010C01CA01A0011124FF27591B35
S113043099F0593F50F4503E68F11A16F040A22F3B
S1130440232F342F4427585FF3CF469537952795AC
S1130450A795F0405395C9F77EF41F16BA0B620BAB
S1130460730B840BBAF09150A1F0FF0FBB1F661FF2
S1130470771F881FC2F70EC0BA0F621F731F841F35
S113048048F4879577956795B795F7959E3F08F05B
S1130490B0CF9395880F08F09927EE0F979587951D
S11304A008950E94ED0288F09F5798F0B92F99277C
S11304B0B751B0F0E1F0660F771F881F991F1AF04B
S11304C0BA95C9F714C0B13091F00E940703B1E0A6
S11304D008950C940703672F782F8827B85F39F0A5
S11304E0B93FCCF3869577956795B395D9F73EF4E4
S11304F090958095709561957F4F8F4F9F4F08958C
S1130500E89409C097FB3EF49095809570956195A9
S11305107F4F8F4F9F4F9923A9F0F92F96E9BB275F
S11305209395F695879577956795B795F111F8CFDB
S1130530FAF4BB0F11F460FF1BC06F5F7F4F8F4F46
S11305409F4F16C0882311F096E911C0772321F03C
S11305509EE8872F762F05C0662371F096E8862FD4
S113056070E060E02AF09A95660F771F881FDAF72B
S1130570880F9695879597F9089597F99F6780E86E
S113058070E060E008959FEF80EC089500240A94E1
S11305901616170618060906089500240A9412165A
S11305A01306140605060895092E0394000C11F48D
S11305B0882352F0BB0F40F4BF2B11F460FF04C03A
S11305C06F5F7F4F8F4F9F4F089557FD9058440F93
S11305D0551F59F05F3F71F04795880F97FB991F9E
S11305E061F09F3F79F0879508951216130614065B
S11305F0551FF2CF4695F1DF08C0161617061806E8
S1130600991FF1CF86957105610508940895E894C2
S1130610BB2766277727CB0197F908950E9420030B
S11306200C94D4020E94C60238F00E94CD0220F03D
S1130630952311F00C94BD020C94C3020C9408038E
S11306400E94E50278F39923C9F35523B9F3950F72
S113065050E0551FAA27EE27FF27BB270024089444
S1130660679520F4E20FF31FB41F0A1E220F331FF5
S1130670441FAA1F6695A9F7779530F4F30FB41FAA
S11306800A1E121E08F46395330F441FAA1F221F6B
S1130690769599F7879520F4B40F0A1E121E631FEE
S11306A0440FAA1F221F331F8695A9F7862F712D89
S11306B0602D11249F5750409AF0F1F088234AF09E
S11306C0EE0FFF1FBB1F661F771F881F91505040FE
S11306D0A9F79E3F510580F00C94BD020C940803C9
S11306E05F3FE4F3983ED4F3869577956795B79585
S11306F0F795E7959F5FC1F7FE2B880F911D96959F
S1130700879597F90895A1E21A2EAA1BBB1BFD0138
S11307100DC0AA1FBB1FEE1FFF1FA217B307E407DC
S1130720F50720F0A21BB30BE40BF50B661F771F34
S1130730881F991F1A9469F7609570958095909514
S11107409B01AC01BD01CF010895F894FFCFD9
S9030000FC
