:100000000C9438000C944A000C944A000C944A005A
:100010000C944A000C944A000C944A000C9455012C
:100020000C944A000C944A000C944A000C944A0028
:100030000C944A000C944A000C94A8000C944A00BA
:100040000C94E7000C944A000C944A000C944A006B
:100050000C944A000C944A000C944A000C944A00F8
:100060000C944A000C944A000C944A000C944A00E8
:1000700011241FBECFEFD4E0DEBFCDBF21E0A0E052
:10008000B1E001C01D92AD36B207E1F70E941A023D
:100090000C9490040C94000010BA1CB8639A609AF7
:1000A00080E48AB918B8409A6B9A089512BC83E329
:1000B00081BD80E286BD88E985BD86E084BD109261
:1000C0003301089506B405FEFDCF80BD089580E09C
:1000D00090E0A8E4BEE38093690190936A01A09345
:1000E0006B01B0936C0110923D0110923E01109291
:1000F0003F011092400180E090E0AAEFBEE38093C0
:10010000620190936301A0936401B0936501109222
:100110005101109252011092530110925401809398
:10012000390190933A01A0933B01B0933C011092A6
:1001300055011092560110925701109258010895DE
:100140008EEE83B988E082B988E3809360000895D9
:100150001F920F920FB60F9211242F933F938F93FC
:100160009F93AF93BF93EF93FF9320913101309111
:10017000320181B1F901EE0FFF1FEE0FFF1FEF5BA0
:10018000FE4F90E0A0E0B0E080839183A283B38330
:100190002230310538F42F5F3F4F309332012093E6
:1001A000310104C01092320110923101809131016D
:1001B00084B91E9AFF91EF91BF91AF919F918F915A
:1001C0003F912F910F900FBE0F901F9018951F9287
:1001D0000F920FB60F9211242F933F938F939F93FB
:1001E000AF93BF93EF93FF9390B580910801811176
:1001F0000BC0923009F040C081E0809307019093DA
:100200001D018093080138C08130B1F5E0910701EC
:100210008E0F80930701F0E0E35EFE4F90839330F2
:1002200059F5809105019091060121E030E0009799
:1002300011F020E030E03093060120930501892B76
:1002400011F46B9801C06B9A81E080936601109263
:100250000801EDE1F1E0A9E0B1E023E231E08191B4
:100260008D93E217F307D9F786E090E090930401AD
:100270008093030110920701FF91EF91BF91AF911D
:100280009F918F913F912F910F900FBE0F901F90D4
:1002900018958CE0809371008EE190E090936D0052
:1002A00080936C0080E48ABF08951F920F920FB66E
:1002B0000F9211242F938F939F938091010190911E
:1002C0000201843F21E0920798F08091660181113C
:1002D0000AC080910001811104C081E08093000177
:1002E00002C010920001109202011092010105C09B
:1002F000019690930201809301019F918F912F911C
:100300000F900FBE0F901F9018950F931F93CF93D0
:10031000DF934098E9E0F1E082E0808384E4818328
:1003200082E3828383838483858383E086838FE073
:1003300097E20197F1F700C00000EF0100E111E042
:1003400089910E946200C017D107D1F78FE19EE426
:100350000197F1F700C00000DF91CF911F910F913D
:1003600008958F929F92AF92BF92CF92DF92EF92B9
:10037000FF920F931F93CF93DF93182FCB01BA01F6
:1003800020E030E040E251E40E94F9030E943C0387
:100390004B015C014098C9E0D1E082E08883198379
:1003A000C501B40128EE33E040E050E00E946E0445
:1003B000205D2A830F2EF4E6CF2ED12CE12CF12CD8
:1003C000F02DA70196010E946E04205D2B83C501CC
:1003D000B401A70196010E946E042AE030E040E0DB
:1003E00050E00E946E04205D2C83605D6D8383E08D
:1003F0008E838FE097E20197F1F700C0000000E1E3
:1004000011E089910E946200C017D107D1F78FE1F6
:100410009EE40197F1F700C00000DF91CF911F919A
:100420000F91FF90EF90DF90CF90BF90AF909F9093
:100430008F9008950E944C000E9456000E9449012E
:100440000E94A0000E946700409810926601789474
:10045000409A09E011E0C1E4D1E08091660188236F
:10046000B1F110926601F80181818234A9F018F48B
:10047000813431F02DC08334D9F0843429F128C07F
:10048000688179818A819B810E946B03AB01BC01E9
:1004900081E40E94B1011CC06C817D818E819F81AD
:1004A0000E946B03AB01BC0182E40E94B10110C049
:1004B000688579858A859B850E946B03AB01BC01A9
:1004C00083E40E94B10104C00E94850101C0409AEA
:1004D0006881798180E090E00E946B03209169013E
:1004E00030916A0140916B0150916C010E94F903B7
:1004F00020913D0130913E0140913F0150914001DA
:100500000E94D00260935E0170935F01809360014E
:10051000909361016C817D8180E090E00E946B038B
:100520002091620130916301409164015091650115
:100530000E94F903209151013091520140915301E1
:10054000509154010E94D0026093590170935A0156
:1005500080935B0190935C016885798580E090E0F1
:100560000E946B032091390130913A0140913B0187
:1005700050913C010E94F9032091550130915601A0
:1005800040915701509158010E94D00260934D0153
:1005900070934E0180934F01909350015ECF50585D
:1005A000BB27AA270E94E7020C94BF030E94B10355
:1005B00038F00E94B80320F039F49F3F19F426F474
:1005C0000C94AE030EF4E095E7FB0C94A803E92F1E
:1005D0000E94D00358F3BA17620773078407950780
:1005E00020F079F4A6F50C94F2030EF4E0950B2EAE
:1005F000BA2FA02D0B01B90190010C01CA01A00175
:100600001124FF27591B99F0593F50F4503E68F1CF
:100610001A16F040A22F232F342F4427585FF3CF10
:10062000469537952795A795F0405395C9F77EF4E1
:100630001F16BA0B620B730B840BBAF09150A1F02A
:10064000FF0FBB1F661F771F881FC2F70EC0BA0FB0
:10065000621F731F841F48F4879577956795B79538
:10066000F7959E3F08F0B0CF9395880F08F0992733
:10067000EE0F9795879508950E94D80388F09F57AD
:1006800098F0B92F9927B751B0F0E1F0660F771FB6
:10069000881F991F1AF0BA95C9F714C0B13091F0AC
:1006A0000E94F203B1E008950C94F203672F782FB3
:1006B0008827B85F39F0B93FCCF386957795679571
:1006C000B395D9F73EF490958095709561957F4FDD
:1006D0008F4F9F4F0895E89409C097FB3EF4909583
:1006E0008095709561957F4F8F4F9F4F9923A9F00B
:1006F000F92F96E9BB279395F6958795779567959A
:10070000B795F111F8CFFAF4BB0F11F460FF1BC0DD
:100710006F5F7F4F8F4F9F4F16C0882311F096E970
:1007200011C0772321F09EE8872F762F05C066231E
:1007300071F096E8862F70E060E02AF09A95660FD7
:10074000771F881FDAF7880F9695879597F9089590
:1007500097F99F6780E870E060E008959FEF80EC74
:10076000089500240A941616170618060906089517
:1007700000240A9412161306140605060895092E7D
:100780000394000C11F4882352F0BB0F40F4BF2BEC
:1007900011F460FF04C06F5F7F4F8F4F9F4F08952C
:1007A00057FD9058440F551F59F05F3F71F0479522
:1007B000880F97FB991F61F09F3F79F08795089507
:1007C000121613061406551FF2CF4695F1DF08C026
:1007D000161617061806991FF1CF86957105610543
:1007E00008940895E894BB2766277727CB0197F9EB
:1007F00008950E940B040C94BF030E94B10338F0CB
:100800000E94B80320F0952311F00C94A8030C94D7
:10081000AE030C94F3030E94D00378F39923C9F339
:100820005523B9F3950F50E0551FAA27EE27FF2750
:10083000BB2700240894679520F4E20FF31FB41F30
:100840000A1E220F331F441FAA1F6695A9F777952A
:1008500030F4F30FB41F0A1E121E08F46395330F11
:10086000441FAA1F221F769599F7879520F4B40F8D
:100870000A1E121E631F440FAA1F221F331F8695D4
:10088000A9F7862F712D602D11249F5750409AF0A3
:10089000F1F088234AF0EE0FFF1FBB1F661F771F82
:1008A000881F91505040A9F79E3F510580F00C944D
:1008B000A8030C94F3035F3FE4F3983ED4F38695CA
:1008C00077956795B795F795E7959F5FC1F7FE2BED
:1008D000880F911D9695879597F90895A1E21A2E94
:1008E000AA1BBB1BFD010DC0AA1FBB1FEE1FFF1FD4
:1008F000A217B307E407F50720F0A21BB30BE40B24
:10090000F50B661F771F881F991F1A9469F760956A
:100910007095809590959B01AC01BD01CF01089524
:04092000F894FFCF79
:00000001FF
