S01700004763634170706C69636174696F6E312E737265635B
S11300000C9438000C944A000C944A000C944A0056
S11300100C944A000C944A000C944A000C949900E5
S11300200C944A000C944A000C944A000C944A0024
S11300300C944A000C944A000C944A000C944A0014
S11300400C9460000C944A000C944A000C944A00EE
S11300500C944A000C944A000C944A000C944A00F4
S11300600C944A000C944A000C944A000C944A00E4
S113007011241FBECFEFD4E0DEBFCDBF21E0A0E04E
S1130080B1E001C01D92A035B207E1F70E94CB0098
S11300900C94D8000C94000010BA1CB8639A609AAF
S11300A018B8409A6B9A089512BC83E381BD80E22C
S11300B086BD88E985BD86E084BD1092040108955B
S11300C01F920F920FB60F9211248F939F9390B5A6
S11300D08091030181110AC0923099F46B9882E0F7
S11300E080933C0181E0809303010BC0813049F48B
S11300F0933029F46B9A8093070110920301909333
S11301003C019F918F910F900FBE0F901F901895F7
S113011080E484B986E883B908958CE08093710003
S11301208EE190E090936D0080936C0080E48ABF30
S113013008951F920F920FB60F9211242F938F934D
S11301409F938091010190910201843F21E09207E5
S1130150A8F08091070181110CC0809100018111E8
S113016005C06B9881E08093000103C06B9A1092E4
S11301700001109202011092010105C001969093B2
S11301800201809301019F918F912F910F900FBED7
S11301900F901F9018950E944C000E9454000E94DA
S11301A08D000E948800409A109207017894FFCF36
S10701B0F894FFCFED
S9030000FC
